:100000006F005001130000001300000013000000F7
:100010001300000013000000130000001300000094
:100020001300000013000000130000001300000084
:08003000130000007300100032
:100038000000000000000000080300000C0300009E
:10004800000000005A070000000000000000000047
:100058005C0700005E0700000000000000000000D0
:1000680060070000000000006207000000000000B8
:100078006407000066070000680700006A070000C0
:100088006C0700006E070000700700007207000090
:100098007407000076070000780700007A07000060
:1000A8007C0700007E070000800700008207000030
:1000B8008407000086070000880700008A07000000
:1000C8008C0700008E0700009007000092070000D0
:1000D8009407000096070000980700009A070000A0
:1000E8009C0700009E070000A0070000A207000070
:1000F800A4070000A6070000A8070000AA07000040
:10010800AC070000AE070000A4050000B20700001D
:10011800B4070000B6070000B8070000BA070000DF
:10012800BC070000BE070000C0070000C2070000AF
:10013800C4070000C6070000C8070000CA0700007F
:10014800CC070000CE070000D0070000D20700004F
:10015800D4070000D6070000D8070000DA0700001F
:10016800DC070000DE070000E0070000E2070000EF
:10017800E4070000E6070000E8070000EA070000BF
:10018800EC070000EE070000F0070000F20700008F
:10019800F4070000F6070000F8070000FA0700005F
:1001A800FC070000FE07000000080000020800002D
:1001B8000408000006080000080800000A080000FB
:1001C8000C0800000E0800001008000012080000CB
:1001D8000000000000000000000000000000000017
:1001E8000000000000000000000000000000000007
:0801F8000000000000000000FF
:10020000397101436EC619A0397141536AC866CA73
:1002100062CC5ECE19A0397101535AD056D252D455
:100220004ED64AD826DA22DC06DE330161408282CD
:1002300041114AC026C222C406C68282B24D410183
:10024000024D924C224CB24B4101024B924A224A3F
:10025000B2494101024992442244B24041018280A4
:100260003D432A876373C3029377F700BDEFADE583
:10027000937606FF3D8ABA960CC34CC30CC74CC795
:100280004107E36BD7FE11E28280B306C3408A06C2
:100290009702000096966780A6002307B700A30682
:1002A000B7002306B700A305B7002305B700A304D2
:1002B000B7002304B700A303B7002303B700A302CA
:1002C000B7002302B700A301B7002301B700A300C2
:1002D000B7002300B700828093F5F50F9396850051
:1002E000D58D93960501D58D61B79396270097021A
:1002F000000096968682E78086FA9680C1171D8F49
:100300003E96E374C3F8A5B77300203001A0EFF266
:100310003FF2AE849305C002EF00D04401E5238094
:1003200004000DBF130415009305C0022285EF00E1
:10033000704375D533068540A2852685EF0030458C
:10034000CDB7EFF2FFEE41112E849305C002EF000E
:10035000704109E5230004004101EDBD9305C00291
:100360000505EF0030407DD5930515002E852EC67E
:10037000EF00D040B2452A86B387A500E1DF228591
:10038000EF00F040D1BFEFF2BFEAAA84096637055B
:1003900000202E84130606F481451305C50AC935CD
:1003A000238C01808305040091E16DB5C205C181F4
:1003B00026850504EF00D011930500082685EF007F
:1003C00030127DD9C5B7EFF2BFE6797185453705A3
:1003D000020002CA02CC02CE02D002D202D402D65D
:1003E00002C602C8EF00807C85451145EF00207AE7
:1003F0009147FC82371401408D473ECC4C08E147C1
:10040000130504803ECE5D21A147FC824C08914734
:10041000130504803ECE5929F16737440040938785
:1004200007203ED00C10B7070C00130504403ED443
:1004300002D223160102EF0040790546930550527F
:1004400013050440EF007005930760137C86854711
:100450005C87680085473EC8292B85451305044005
:10046000EF0050024561FDB3EFF2FFDA0971094573
:10047000F5291D24EF007007716513050520EF00B5
:10048000D00CB707002083A5070837250000130507
:100490008557EF00F0163121AA8537250000130596
:1004A0008558EF00F0153725000013058559EF003A
:1004B0007026113FB7250000374500409385C55A87
:1004C00013050540C9351305400637290000B70458
:1004D0000020EF003004CA8926849305495B138508
:1004E000C40AEF00102D1DC9B74400409384044096
:1004F0000549930500022685EF00807EE31B25FF5A
:1005000013054006EF001001B72500009385855BB9
:100510001305C40AEF00F02919E501A01305200313
:10052000EF00407F5DBF372500001305455CEF00FD
:10053000701E1306000881450A851D331306000846
:1005400081450801313B8A851305C40ADD3B0C0156
:100550001305C40A6D3B13060008814508020933E0
:10056000B72500008A8610019385455E0802EF00DA
:10057000101B374500400C021305054029351305B3
:100580004006EF0020799385495B1305C40AEF000C
:10059000502211E101A0372500001305C55FEF00CF
:1005A000701701A0411122C6374400409305000294
:1005B00013050440352705C513050440312F138763
:1005C00081811C2393F7F70F9386170093F6F60F9C
:1005D00014A3370700201307C70ABA9788A3324429
:1005E000410173002030B71702409843B706FFF867
:1005F0001367170098C3D843758FD8C39843B706BD
:10060000F7FEFD16758F98C39843B706FCFFFD16DD
:10061000758F98C3D843B70681FFFD16758FD8C371
:100620009843B70600ECFD16758F98C33707FF0097
:1006300098C723A60702B746024003A706801367A0
:10064000070123A0E680D843B706C1FFFD16D8C333
:10065000D843D8C3D84313670740D8C3D843758F4E
:10066000D8C3D843B7060001D8C39843558F98C361
:10067000984393166700E3DD06FED843B7160240A1
:10068000719BD8C3D84313672700D8C32147DC42E6
:10069000B18BE39EE7FE8280371602405C4237074B
:1006A00000209146B18B130707086385D700A14648
:1006B0006388D702B7177A00938707201CC3B71740
:1006C0000240DC43918393F6F700B707002093873D
:1006D0000700B69794231C43B3D7D7001CC382806E
:1006E00054425042C167C982BD8A7D8E93872600DD
:1006F00085CABD466389D702C1466389D702C5450D
:1007000081466393B700C1470DE637460240032692
:100710000680418A15C637167A00130606202DA0DA
:100720008146C947D5B78546B547F9BF8146BD471C
:10073000E1BF3716024050429315E600E3DD05FCA9
:1007400037163D0013060690B387C7021CC3A5DA0F
:100750001C438583A5B701A001A001A001A001A0B1
:1007600001A001A001A001A001A001A001A001A081
:1007700001A001A001A001A001A001A001A001A071
:1007800001A001A001A001A001A001A001A001A061
:1007900001A001A001A001A001A001A001A001A051
:1007A00001A001A001A001A001A001A001A001A041
:1007B00001A001A001A001A001A001A001A001A031
:1007C00001A001A001A001A001A001A001A001A021
:1007D00001A001A001A001A001A001A001A001A011
:1007E00001A001A001A001A001A001A001A001A001
:1007F00001A001A001A001A001A001A001A001A0F1
:1008000001A001A001A001A001A001A001A001A0E0
:1008100001A001A0970100209381C106177100205B
:100820001301417E17250000130505E997F5FF1F09
:100830009385457D1386818163FAC5008322050077
:1008400023A0550011059105E3EAC5FE13858181BA
:10085000971500209385057A6377B500232005005E
:100860001105E36DB5FEFD42739002BCAD4273907D
:100870004280B76200009382820873A0023097F230
:10088000FFFF9382A27B93E2320073905230EFF02D
:100890009FD597020000938262BD7390123473005B
:1008A0002030B7F7FF1F03A5477082809C4513F7E0
:1008B000070113F8F70001C7D8413368E8008E211B
:1008C00013F7F50F39C318418146854E3D4F930FFD
:1008D000800293028004214E3396DE00B3F8C500F7
:1008E000631116039398260033131F011343F3FF7C
:1008F0003377E300B318180133E7E800639FF70587
:1009000050C98506E39AC6FD18C11307F00F637539
:10091000B70454412146854E3D4F930F8002930208
:100920008004414EB398CE0033F715016392E8027C
:100930001317260001173313EF001343F3FFB376A9
:10094000D3003317E800D98E639DF701232A1501E0
:100950000506E319C6FD54C18280E39457FA10C915
:100960004DB7E39757FE23281501DDB723AEA180CD
:1009700082809387C1819443182181E63C219207AC
:1009800021A894430546639FC6023C21103192077B
:100990006314D60093E707F8B7E600E093F7F70F84
:1009A000BA962380F6408546935757003397E60062
:1009B0005441A5C2938707048A07B7E600E0B697BB
:1009C00098C382808C4389466391D50214313C21BF
:1009D0006365D6008A06B6975DB79386E6038A06F6
:1009E000B69793F7F70F920775B790438D46631C40
:1009F000D60014313C216364D6008606E9BF938695
:100A0000C6078606F1BF94439147E39EF6F81C3172
:100A1000BDB7938707064DB7371702405C43914631
:100A2000B18B6385D700A1466382D706B7177A00DA
:100A3000938707201CC1371602405C42370700200D
:100A4000130707019183BD8BBA9794231C41B3D739
:100A5000D7005CC15442A1829D8ABA969422B3D633
:100A6000D70014C55442AD829D8A36971823B3D758
:100A7000E7005CC55842398393763700138741807D
:100A800036971823B3D7E7021CC982805C435843CA
:100A9000C166C983758FB7F6FF1F83A6C670BD8B6D
:100AA00089071396160163480600C54601466392FE
:100AB000D702C94739A88946638FD702BD46638EDE
:100AC000D702C146638ED702C54601466393D7005D
:100AD000C1471DEF3747024003270780418B05C7F9
:100AE00037177A0013070720B307F7021CC121D676
:100AF0001C41858381B701466DBF0546B547D1BF0F
:100B00000146BD47F9B737173D0013070790E9BF06
:100B1000B7150240D8559316F700D85563DF060481
:100B200011833D8B9306170037177A0013070720B0
:100B30003357D70218C1D455A182BD8A8DE295469C
:100B40003307D702058318C137170240585714419D
:100B50003D8B050733D7E60218C1184171B78545AB
:100B60006394B600E546E9BFBD456396B600D1463D
:100B70003387E602C9BF8906E5BF3D8B93061700A0
:100B800037177A00130707203357D702F1B799C5F3
:100B9000371702401C4F5D8D08CF8280B717024087
:100BA000984F1345F5FF798D88CF828099C5371707
:100BB00002405C4F5D8D48CF8280B7170240D84F0E
:100BC0001345F5FF798DC8CF8280EFF26FE61629C5
:100BD000F577FD17F58FF621DA257971D58F1EA9E6
:100BE0005625FD779387379FF58FD6212A842EC609
:100BF000D58F9625D58FB625D58F5EA55E29C207E0
:100C0000C18393F7F7CFD98F5EA968083135B7470D
:100C1000014093870780B245631AF404A257562413
:100C20006547B387E702C206C186984163D20604CE
:100C3000060752244206B3D7E7021307400641864F
:100C4000B3D6E702B3F7E7029206635506028E07B2
:100C500093872703B3D7E70213F77700B367D7006B
:100C6000C207C1831EA445616FF0CFDE925745BF16
:100C70000A07C1B7920793872703B3D7E702BD8B53
:100C8000D58FF9BF91C55E250967D98F5EA5828092
:100C90005A25F977FD17F98FD5BF13F7F50F85475B
:100CA0001583B395B7006319F7009307C500984300
:100CB00001CED98D8CC38280894693074501E31804
:100CC000D7FE93070501E5B793C5F5FFF98DDDB7AD
:100CD00093F5F51F4EA182804A211375F51F82807E
:100CE0000A216D8D3335A0008280B707002083A7CD
:100CF000070837177A0013070720B3D7E70293F7DF
:100D0000F70F2381F1821307803EB387E702239018
:100D1000F1828280B7F700E0D8438146799BD8C33F
:100D200003D701823306A70290CBD4CB9843136735
:100D3000070198C398431367170298C3D843058BDC
:100D400075DF9843799B98C38280EFF26FCE2A8437
:100D500011650111854511051D3D930700207C8219
:100D6000371501408D473EC44C00E147130505800F
:100D70003EC62D3E22C837440140B70708000C0884
:100D8000130504803ECC02CA231E01003D3D85456B
:100D900013050480C53D05616FF0CFCBEFF2AFC7FF
:100DA000B7440140AE89328901449384048063458D
:100DB00024014A856FF06FC99305000426850D371D
:100DC00065DDB38789008385070026850504C20594
:100DD000C181FD3DE9BF138781801C43B7260020F8
:100DE000938606FF3E95636BD500B78600209386F9
:100DF000068063E5A60008C33E858280FD57EDBFEF
:100E000039713EDA2ED232D436D63AD842DC46DEBA
:100E10009387C18022CC804326CA06CEAA8409C407
:100E20001C4C99E32285C9230C4454102686228544
:100E300036C6EF00B053F2406244D2442161828052
:100E4000011126CA4AC806CE22CC4EC652C4AA8474
:100E50002E8901C51C4D91E3412B9C4C804499E3A4
:100E600026855923971700009387477D631BF4025B
:100E7000C0405E24A18BB1C71C48A1C7FD59294AB7
:100E80001C4483450900FD17B1E91CC463DD070656
:100E90002286A9452685812AFD576308F502294542
:100EA00035A0971700009387677B6314F400804494
:100EB000C9B79717000093876776E31CF4FAC0441C
:100EC0004DBFA2852685F12A55D97D55F240624451
:100ED000D2444249B249224A056182801CC40509B4
:100EE00063D70700184C63CAE700638845011C40BC
:100EF0001387170018C08CA361B722862685E520CA
:100F0000E31035F9D9B71C401387170018C02947DB
:100F100098A371B79387C180AA85884315B73571A7
:100F20003ECBB707008093C7F7FF3ECE3EC8C177E0
:100F30009387872032C536C73AC942CD46CF3ECACD
:100F40009387C1802AC42ACC884334012E862C0082
:100F500086DE36C2EF00B014A24723800700F650A9
:100F60000D61828093F5F50F1C2191C76393B70043
:100F700082800505D5BF91C101458280AA8785077A
:100F800003C7F7FF6DFF3385A7407D158280AA87D1
:100F900009CA850503C7F5FF85077D16A38FE7FE00
:100FA00065FB3E966393C70082808507A38F07FE8B
:100FB000D5BF18219C2101E791C30145828081475B
:100FC00039A01C3113071500EDDB81473A853387C3
:100FD000F500182365D7B306F5009422E393E6FEE7
:100FE00085072A87E5B7011122CC26CA4AC806CE52
:100FF0004EC6AA842E89328401C51C4D91E3ED268C
:1010000097170000938787636317F406C0401C4C52
:101010001CC45E24A18BC1C31C48B5CF1C4808402A
:101020009379F90F1379F90F1D8D5C486346F5002C
:10103000A2852685692C25E51C440505FD171CC4E1
:101040001C401387170018C0238037015C48638851
:10105000A7005E24858B81CBA9476316F900A28582
:101060002685B5240DEDF24062444A85D2444249BA
:10107000B24905618280971700009387275E631449
:10108000F400804469B79717000093872759E3104D
:10109000F4F8C044ADBFA2852685212041D17D59F9
:1010A000D9B741119387C18026C2844322C44AC064
:1010B00006C62A892E8489C49C4C99E326852D2650
:1010C0009717000093878757631BF402C0400317EC
:1010D000C40093170701C18393F68700ADEA93F626
:1010E000070195EEA5472320F900136707045AA4CA
:1010F0007D55B240224492440249410182809717B3
:1011000000009387A7556314F4008044C9B797176C
:1011100000009387A750E31CF4FAC0444DBF918BA5
:101120009DC34C5889C9930744046384F5004A85DC
:101130003123232A04025E242322040093F7B7FDFF
:101140005EA41C481CC05E2493E787005EA41C4874
:1011500099EB5E241307002093F707286385E700C7
:10116000A2854A85A1215E2413F717001DC35C48A0
:1011700023240400B307F0401CCC1C480145B5FBF8
:101180008317C40013F707082DD793E707045EA45D
:1011900085B7898B014791E3584818C4F9BFDE250C
:1011A000011122CC26CA06CE4AC84EC613F78700C4
:1011B000AA842E8479EBD841634DE000B841634A9C
:1011C000E0000145F2406244D2444249B24905611F
:1011D000828058547DD703A904009396370123A039
:1011E000040063DB060670485E24918B99C75C405F
:1011F0001D8E5C5899C33C401D8E5C540C5081463A
:1012000026858297FD575A24631DF5009440F547C3
:1012100063E8D706B70740208507B3D7D700858B8B
:10122000A5C31C48232204001CC09317370163D8B0
:101230000700FD576314F5009C4091E368C84C58C3
:1012400023A02401BDDD930744046384F5002685B3
:10125000F526232A0402B5B70C500146854626859B
:101260000297FD572A86E311F5F89C40B5DF7547D4
:101270006385E70059476393E70423A0240191B7EE
:10128000136707045AA47D5535BF83A90501E38A76
:1012900009F203A905008D8B23A0350133093941DB
:1012A000014791E3D84918C4E35D20F11C540C5068
:1012B000CA864E86268582976347A0005E2493E700
:1012C00007045EA4C9B7AA993309A940F1BF9C4994
:1012D000B9CF011122CC06CE2A8411C51C4D81E75D
:1012E0002EC61922B2459717000093872735639BB6
:1012F000F5004C408397C50095C722856244F240B3
:10130000056171BD97170000938747356394F50019
:101310000C44CDB79717000093874730E39CF5FC4A
:101320004C44C9BFF24062440145056182800145D9
:101330008280411122C406C62A844EA572A52320AC
:101340000500232205002324050023220506232867
:101350000500232A0500232C05002146814513059D
:10136000C505EFE0FFEF971700009387A7E65CD075
:10137000971700009387C7E81CD49717000093873E
:10138000A7EC5CD497170000938707EF00D01CD818
:10139000B24022444101828097050000938565F3A5
:1013A000A9A2411126C2130680069384F5FFB384D7
:1013B000C4024AC02E8922C406C6938544071D264E
:1013C0002A8401CD2320050023222501310508C4EC
:1013D000138684068145EFE0BFE82285B2402244AF
:1013E00092440249410182801C4DADE3411106C681
:1013F00022C497070000938767FA1CD59387018161
:101400009C43232405042326050423280504631490
:10141000F50085471CCD2A841D2848C02285052853
:1014200008C422852D2048C4484001469145113703
:1014300008440546A545F53D48440946C945D53DFE
:1014400085471CCCB24022444101828082804111F8
:101450009387018126C284434AC006C69C4C22C49D
:101460002A8999E326854937938484048044DC40A3
:10147000FD1763D607009C40B9CF8440C5BF031752
:10148000C40039E7C177850723220406232004001E
:1014900023220400232404005CC423280400232AFC
:1014A0000400232C0400214681451305C405EFE008
:1014B0003FDB232A0402232C0402232404042326D2
:1014C00004042285B24022449244024941018280B0
:1014D0001304840671BF91454A85E13588C051FDEA
:1014E000B1472320F9000144E9BF797122D44AD0E1
:1014F00052CC56CA5AC85EC606D626D24ECE2A8AC4
:10150000AE8A130485040149054BFD5B09ECB2501A
:1015100022544A8592540259F249624AD24A424BB5
:10152000B24B45618280044483294400FD1963D491
:1015300009000040E1BFDE24637BFB008397E400E9
:1015400063877701A6855285829A3369A9009384BF
:101550008406E9BF1971A6DAAE848395E500A2DCA2
:1015600086DE328463DB0500DE2423A0060093F7C9
:10157000070885E7930700401DA0300836C6EF0036
:101580003056B246E34205FE7247BD67F98F797760
:10159000BA9793B717009CC2F1BF930700041CC011
:1015A000F6506654D654014509618280DE2501114A
:1015B00022CC06CE26CA4AC8898B2E8489CF9307AF
:1015C00074041CC01CC885475CC8F2406244D24405
:1015D00042490561828074003000AA84A53FA2457B
:1015E0002A892685012219E98317C40013F70720E9
:1015F00069FFF19B93E727005EA4D1B7970700002E
:101600009387C7D99CD45E2408C008C893E707080D
:101610005EA4A2475CC8B24781CF8315E40026854B
:10162000EF00304F11C55E24F19B93E717005EA4D5
:101630005E243369F9002316240141BFDDC183A76D
:10164000C5FF411122C406C626C21384C5FF63D359
:1016500007003E94AA84EF001063938741829C4365
:1016600081EF2322040023A281822244B2402685F6
:10167000924441016F005061637EF40014403307CF
:10168000D4006396E7009843DC43369718C05CC0EB
:10169000D9BFBA87D84319C3E37DE4FE94433386A8
:1016A000D700631F86001040B29694C33386D700DC
:1016B000E31DC7FA10435843B29694C3D8C375B715
:1016C0006375C400B1479CC04DB71040B306C40059
:1016D0006316D70014435843B29614C058C0C0C311
:1016E00069B78280011126CA93843500F19806CE2D
:1016F00022CC4AC84EC6A104B14763F5F404B144F4
:1017000063E4B4042A89EF00105893874182984318
:101710003A8429E4938781829C4399E781454A85ED
:10172000EF00F02723A4A182A6854A85EF00302789
:10173000FD5963193507B1472320F9004A85EF00A9
:10174000B05429A0E3DE04FAB1471CC10145F240C0
:101750006244D2444249B249056182801C40858F6F
:1017600063CF0702AD4663F6F6001CC03E9404C08A
:1017700031A05C406313870223A2F1824A85EF0007
:10178000B0501305B4009307440061993307F54046
:101790005DDF3A94898F1CC05DBF5CC3C5B72287EB
:1017A000404085BF130435007198E30285FCB30502
:1017B000A4404A85EF00B01EE31B35FBADBF01110D
:1017C0004AC803A9850022CC52C45AC006CE26CAF4
:1017D0004EC656C22E84328B368A63E82609DE2531
:1017E00013F7074849C304408C495848AA8AB3896B
:1017F000B4408D44B384E4020947B3C4E4021387C0
:1018000016004E9763F3E400BA8493F70740B5CF10
:10181000A6855685C13D2A891DE1B14723A0FA005E
:101820005E247D5593E707045EA4F2406244D244EF
:101830004249B249224A924A024B056182800C48D1
:101840004E86EF00D0345E2493F7F7B793E707088E
:101850005EA42328240144C84E99B3843441232034
:10186000240104C4528963732A01528908404A86BC
:10187000DA85EF00F03C1C440145B38727411CC4C6
:101880001C403E99232024014DB726865685EF0043
:10189000D03F2A895DFD0C4856854D33BDBFDE25FE
:1018A000717126D34AD14ECF06D722D552CD56CB11
:1018B0005AC95EC762C566C393F70708AA892E890D
:1018C000B284B1C39C49A1E39305000436C6193D17
:1018D0002320A9002328A900B24615E1B14723A07F
:1018E000F9007D55BA502A549A540A59FA496A4A5D
:1018F000DA4A4A4BBA4B2A4C9A4C4D618280930784
:101900000004232AF90093070002A30CF1029307B5
:10191000000302DA230DF10236CE930B5002971A20
:101920000000938AAAD5054C294B26841C2099C314
:1019300063987709B30C9440638D0C00E686268685
:10194000CA854E85AD3DFD57630BF518D256E69618
:1019500036DA1C2063850718FD579304140002D063
:1019600002D63ED202D4A301010682DC8C201546A9
:101970005685EF00502013841400825721E513F799
:10198000070109C713070002A301E10613F7870047
:1019900009C71307B002A301E10694201307A002B0
:1019A000638AE602B25726848146254618209305AD
:1019B0001400130707FD6372E6068DC63ED61DA010
:1019C0000504ADB7330555413315AC00C98F3ED082
:1019D000A28469BF724793064700184336CE634717
:1019E00007023AD618209307E002631DF704183067
:1019F0009307A002631BF702F2470904138747000D
:101A00009C433ACE63C107023ED22DA83307E04083
:101A100093E727003AD63ED0F1B7B38767038546F0
:101A20002E84BA9761B7FD57C5B7050402D2814627
:101A300081472546182093051400130707FD637698
:101A4000E606F9F20C200D4617150000130585C3B4
:101A5000EF00701211CD971700009387A7C21D8D5C
:101A600093070004B397A700025505045D8D2AD0A3
:101A70000C20194617150000130505C19304140026
:101A8000230CB102EF00300F25C597E7FFFF9387C6
:101A9000675795E70257F2471377071009CF910769
:101AA0003ECED257D2973EDA49B5B3876703854613
:101AB0002E84BA9741B79D07E19BA107D5B7780857
:101AC000970600009386E6CF4A860C104E85970055
:101AD0000000E7000000FD572A8AE314F5FC835755
:101AE000C9007D5593F70704E39E07DE5255DDBB21
:101AF0007808970600009386C6CC4A860C104E855F
:101B0000FD2ED1BF1C46FD171CC663DA0700184E18
:101B100063C5E700A9476394F5006FF0CFCC1C4282
:101B20002E851387170018C28CA38280011122CC46
:101B300026CA4AC84EC652C406CE2A89AE89328405
:101B4000B304D6007D5A63149400014501A80C200B
:101B50004E864A85453F0504E31745FFF24062443F
:101B6000D2444249B249224A05618280357122CD70
:101B700026CB4AC94EC706CF52C556C35AC1DEDE70
:101B8000E2DCE6DAAA89AE843289368409C51C4DC6
:101B900099E3EFF07F8597170000938727AA639753
:101BA000F40C83A44900DE24A18BFDC39C48EDC343
:101BB00093070002A304F1029307000302D2230556
:101BC000F10222C6930B5002971A0000938A0AABC7
:101BD000054C294B4A841C2099C3639E770DB30C96
:101BE0002441638D0C00E6864A86A6854E853D3FDE
:101BF000FD57630FF51C9256E69636D21C2063897A
:101C0000071CFD571309140002C802CE3ECA02CCBD
:101C1000A309010482D48345090015465685A12FE6
:101C200013041900C24751E913F7070109C7130745
:101C30000002A309E10413F7870009C71307B002E4
:101C4000A309E104834609001307A002638FE60697
:101C5000F2474A848146254618209305140013074D
:101C600007FD6377E60AB5CA3ECE85A89717000040
:101C70009387C79E6395F40083A489002DB79717B7
:101C800000009387A799E390F4F283A4C90021BFD1
:101C9000A6854E85EFF0EFC001DD7D55FA406A4420
:101CA000DA444A49BA492A4A9A4A0A4BF65B665CC0
:101CB000D65C0D618280050439BF3305554133156B
:101CC000AC00C98F3EC82289B9B732479306470096
:101CD000184336C6634707023ACE18209307E0023E
:101CE000631DF70418309307A002631BF702B24785
:101CF0000904138747009C433AC663C107023ECAE2
:101D00002DA83307E04093E727003ACE3EC8F1B74D
:101D1000B387670385462E84BA973DBFFD57C5B785
:101D2000050402CA81468147254618209305140000
:101D3000130707FD6374E606F9F20C200D4617152C
:101D4000000013052594052D11CD971700009387EA
:101D500067931D8D93070004B397A70042450504C0
:101D60005D8D2AC80C201946171500001305C59172
:101D7000130914002304B102FD2B35C197E7FFFFBF
:101D80009387472895E74247B2471377071009CF53
:101D900091073EC69257D2973ED22DBDB3876703B7
:101DA00085462E84BA9751B79D07E19BA107D5B709
:101DB0007800970600009386A6D726860C084E85E5
:101DC00097000000E7000000FD572A8AE314F5FCA5
:101DD000DE2493F70704E39207EC1255C1B57800AF
:101DE000970600009386C6D426860C084E85012AE5
:101DF000E1BF797156CA9C49BA8A984522D426D245
:101E00004ECE52CC06D64AD05AC85EC6AA892E8477
:101E1000B284368A63D3E700BA879CC00347340490
:101E200019C385079CC01C4093F7070281C79C40DB
:101E300089079CC00329040013796900631A09000B
:101E4000130B9401FD5B5C449840998F634CF9043B
:101E50001C408346340493F70702B336D000A5EB49
:101E600013063404D2854E85829AFD576303F50428
:101E70001C4011469840998B544481446397C70095
:101E8000B384E64063D3040081441C44184863547F
:101E9000F700998FBE94014969047D5B639824051E
:101EA000014509A885465A86D2854E85829A631EC9
:101EB00075017D55B250225492540259F249624A3A
:101EC000D24A424BB24B456182800509ADBF330710
:101ED000D40013060003A301C704034754049387E7
:101EE0001600A2978906A381E7049DBF8546228636
:101EF000D2854E85829AE30E65FB050945B7797157
:101F000022D426D24AD04ECE06D652CC56CA5AC871
:101F1000B689942D930790063289AA842E8413865D
:101F20003504638DF60263E2D70693078005638567
:101F3000F61863EDD700638D062093073004638E97
:101F4000F60A930A24042301D404C9A09307300697
:101F50006385F60A93074006E395F6FE1C400843A6
:101F600093F6070893054500C5C61C410CC363D80A
:101F700007001307D002B307F040A301E40497065B
:101F800000009386E670294765A8930700076381E0
:101F9000F61663E5D7029307E0066388F618930701
:101FA000F006E390F6FA0C401C4313F8050813857D
:101FB00047006307080608C39C4385A8930750079A
:101FC000E383F6FE930780076388F61293073007D2
:101FD000E399F6F61C43D04181459386470014C32C
:101FE00083AA07005685412E01C53305554148C0D7
:101FF0005C401CC8A301040461A81C43930A240488
:10200000938647009C4314C32301F4048547D5B746
:1020100093F607041C410CC3B9DAC207C18781BF1C
:1020200093F5050408C3C9D99E231307F0066386F8
:10203000E60E970600009386A6652947A3010404CF
:102040004C400CC463C5050008406D9908C099E375
:10205000B28A89CDB28AB3F5E702FD1AB6958C2112
:102060002380BA00B3D5E70263FFE70AA147631EE6
:10207000F7001C40858B91CB58401C4863C7E70094
:1020800093070003A38FFAFEFD1A3306564110C8CA
:102090004E87CA867000A2852685A13B7D5A631DA6
:1020A000450B7D55B250225492540259F249624A6E
:1020B000D24A424B45618280A382D5049706000034
:1020C0009386065D0C40084313F805081C41110572
:1020D000630D080208C313F7150001C793E5050255
:1020E0000CC04147A1FF0C4093F5F5FD0CC0B9B7FA
:1020F0009C4193E707029CC193078007A302F40465
:10210000970600009386065A75BF13F8050408C3A6
:10211000E30308FCC207C1837DBF970600009386D6
:102120002657214721BFAE873DB794411C43CC4978
:1021300013F80608138547006306080008C39C438C
:102140008CC339A008C393F606049C43F5DA8EA32A
:1021500023280400B28A2DBF14485686CA852685D6
:102160008299E30045F51C40898B8DE7B2474844CE
:10217000E35AF5F23E853DB785465686CA852685E3
:102180008299E30065F3050A5C443247998FE34581
:10219000FAFEE9BF014A930A94017D5BF5B741114C
:1021A00022C42A842E859707002023A307E406C6AD
:1021B000EFE07FC2FD576319F50097070020938772
:1021C00027E39C4391C31CC0B2402244410182805A
:1021D000411122C42E848395E50006C61126634969
:1021E00005007C48AA977CC8B24022444101828005
:1021F0005E247D777D17F98F5EA4FDB7DE25011182
:1022000022CC26CA4AC84EC606CE93F70710AA8427
:102210002E843289B68991C78395E50089460146A7
:102220000D225E247D777D17F98F5EA48315E4006F
:102230006244F240CE864A86B24942492685D2445B
:10224000056125A8411122C42E848395E50006C6A8
:10225000CD28FD575A24631AF500FD77FD17F98F35
:102260005EA4B2402244410182808567D98F5EA47A
:1022700068C8C5BF8395E50025A8411122C42A84FA
:102280002E85B28536869707002023A307D606C67B
:10229000EFE0DFB0FD576319F50097070020938743
:1022A00027D59C4391C31CC0B24022444101828087
:1022B000411122C42A842E859707002023AA07D221
:1022C00006C69D24FD576319F500970700209387E4
:1022D00027D29C4391C31CC0B2402244410182805A
:1022E000411122C42A842E85B2859707002023A19C
:1022F00007D006C69124FD576319F5009707002003
:10230000938707CF9C4391C31CC0B2402244410134
:102310008280411122C42A842E859707002023A998
:1023200007CC06C61524FD576319F5009707002052
:10233000938707CC9C4391C31CC0B2402244410107
:102340008280411122C42A842E85B2853686970761
:10235000002023AF07C806C60124FD576319F50006
:10236000970700209387C7C89C4391C31CC0B24005
:1023700022444101828093F5F50F2A966314C5002B
:10238000014582801C21E38EB7FE0505C5BFB3C79A
:10239000A5008D8B3307C50081E78D4763EDC7002E
:1023A000AA87637EE508942185078505A38FD7FE5C
:1023B000E3EBE7FE828093763500AA8789CA9421F1
:1023C00085078505A38FD7FE93F63700C5BF9376A3
:1023D000C7FF138606FE63F0C70683A3050083A22A
:1023E000450083AF850003AFC50083AE050103AE92
:1023F000450103A3850183A8C5019385450223A058
:10240000770003A8C5FF23A2570023A4F70123A642
:10241000E70123A8D70123AAC70123AC670023AE95
:1024200017019387470223AE07FF75B790419107C5
:10243000910523AEC7FEE3EBD7FEE3E6E7F6828025
:1024400063F1A504B386C500637DD5029345F6FF0D
:102450008147FD176393F50082803387F6000348B8
:1024600007003387C7002A9723000701DDB73387AA
:10247000F50014233307F500850714A3E319F6FECE
:1024800082808147E5BF8280828081E5B2856FF0DE
:102490006FA5011122CC06CE26CA4AC84EC6328488
:1024A00001EEEFF0AF990149F24062444A85D2440F
:1024B0004249B24905618280AE84AA89A128268951
:1024C000E37485FEA2854E85EFF0CFA12A8969DDF0
:1024D000A68522866D3DA6854E85EFF02F96E9B73D
:1024E000411122C42A842E85B285368697070020A2
:1024F00023A007B006C68D28FD576319F50097077E
:1025000000209387E7AE9C4391C31CC0B240224495
:102510004101828083A7C5FF1385C7FF63D50700EC
:10252000AA959C413E95828093078005170700205D
:102530002320F7AC7D558280930780051707002084
:102540002328F7AA7D55828093078005170700206E
:102550002320F7AA014582809307800517070020F2
:102560002328F7A87D558280930780051707002050
:102570002320F7A87D55828053797374656D436C71
:102580006B3A25640D0A00004368697049443A2596
:102590003038780D0A0000004E6561724C696E6B30
:1025A0005F4720546573740D0000000041540D0A0C
:1025B000000000004F4B000052454345495645443A
:1025C000415441004E6561724C696E6B20526563E7
:1025D0006569766520446174612053756363656540
:1025E000640D000041542B53454E44444154413D39
:1025F000302C25732C25730D0A0000004E65617286
:102600004C696E6B2053656E642044617461205385
:102610007563636565640D00000000000000000044
:1026200000000000000000000000000000000000AA
:10263000000000000000000000000000000000009A
:10264000000000000000000000000000000000008A
:10265000000000000000000000000000000000007A
:10266000000000000000000000000000000000006A
:102670000000000000000000232D302B200000008F
:10268000686C4C0065666745464700003031323360
:10269000343536373839414243444546000000005E
:1026A00030313233343536373839616263646566C8
:0426B0000000000026
:1026B40000000000000000000102030406070809EE
:1026C40000000000010203040102030406070809D4
:1026D40000000000382600005826000018260000DC
:1026E40000000000000000000000000000000000E6
:1026F40000000000000000000000000000000000D6
:1027040000000000000000000000000000000000C5
:1027140000000000000000000000000000000000B5
:1027240000000000000000000000000000000000A5
:102734000044950802040608F01F00202000002031
:0827440020000020000000004D
:00000001FF
